{
  "contractName": "EventList",
  "abi": [
    {
      "constant": true,
      "inputs": [
        {
          "name": "",
          "type": "uint256"
        }
      ],
      "name": "events",
      "outputs": [
        {
          "name": "id",
          "type": "uint256"
        },
        {
          "name": "name",
          "type": "string"
        },
        {
          "name": "dateTime",
          "type": "string"
        },
        {
          "name": "description",
          "type": "string"
        },
        {
          "name": "paymentType",
          "type": "bool"
        },
        {
          "name": "price",
          "type": "uint256"
        },
        {
          "name": "walletAddr",
          "type": "address"
        }
      ],
      "payable": false,
      "stateMutability": "view",
      "type": "function",
      "signature": "0x0b791430"
    },
    {
      "constant": true,
      "inputs": [],
      "name": "eventCount",
      "outputs": [
        {
          "name": "",
          "type": "uint256"
        }
      ],
      "payable": false,
      "stateMutability": "view",
      "type": "function",
      "signature": "0x71be2e4a"
    },
    {
      "inputs": [],
      "payable": false,
      "stateMutability": "nonpayable",
      "type": "constructor",
      "signature": "constructor"
    },
    {
      "constant": false,
      "inputs": [
        {
          "name": "name",
          "type": "string"
        },
        {
          "name": "dateTime",
          "type": "string"
        },
        {
          "name": "description",
          "type": "string"
        },
        {
          "name": "paymentType",
          "type": "bool"
        },
        {
          "name": "price",
          "type": "uint256"
        },
        {
          "name": "walletAddr",
          "type": "address"
        }
      ],
      "name": "createEvent",
      "outputs": [],
      "payable": false,
      "stateMutability": "nonpayable",
      "type": "function",
      "signature": "0x488dcae0"
    }
  ],
  "bytecode": "0x60806040526000805534801561001457600080fd5b50610809806100246000396000f3fe6080604052600436106100565763ffffffff7c01000000000000000000000000000000000000000000000000000000006000350416630b791430811461005b578063488dcae01461021557806371be2e4a146103fb575b600080fd5b34801561006757600080fd5b506100856004803603602081101561007e57600080fd5b5035610422565b60405180888152602001806020018060200180602001871515151581526020018681526020018573ffffffffffffffffffffffffffffffffffffffff1673ffffffffffffffffffffffffffffffffffffffff16815260200184810384528a818151815260200191508051906020019080838360005b838110156101125781810151838201526020016100fa565b50505050905090810190601f16801561013f5780820380516001836020036101000a031916815260200191505b5084810383528951815289516020918201918b019080838360005b8381101561017257818101518382015260200161015a565b50505050905090810190601f16801561019f5780820380516001836020036101000a031916815260200191505b5084810382528851815288516020918201918a019080838360005b838110156101d25781810151838201526020016101ba565b50505050905090810190601f1680156101ff5780820380516001836020036101000a031916815260200191505b509a505050505050505050505060405180910390f35b34801561022157600080fd5b506103f9600480360360c081101561023857600080fd5b81019060208101813564010000000081111561025357600080fd5b82018360208201111561026557600080fd5b8035906020019184600183028401116401000000008311171561028757600080fd5b91908080601f01602080910402602001604051908101604052809392919081815260200183838082843760009201919091525092959493602081019350359150506401000000008111156102da57600080fd5b8201836020820111156102ec57600080fd5b8035906020019184600183028401116401000000008311171561030e57600080fd5b91908080601f016020809104026020016040519081016040528093929190818152602001838380828437600092019190915250929594936020810193503591505064010000000081111561036157600080fd5b82018360208201111561037357600080fd5b8035906020019184600183028401116401000000008311171561039557600080fd5b91908080601f0160208091040260200160405190810160405280939291908181526020018383808284376000920191909152509295505050508035151591506020810135906040013573ffffffffffffffffffffffffffffffffffffffff16610618565b005b34801561040757600080fd5b5061041061073c565b60408051918252519081900360200190f35b600160208181526000928352604092839020805481840180548651600296821615610100026000190190911695909504601f810185900485028601850190965285855290949193929091908301828280156104be5780601f10610493576101008083540402835291602001916104be565b820191906000526020600020905b8154815290600101906020018083116104a157829003601f168201915b50505060028085018054604080516020601f60001961010060018716150201909416959095049283018590048502810185019091528181529596959450909250908301828280156105505780601f1061052557610100808354040283529160200191610550565b820191906000526020600020905b81548152906001019060200180831161053357829003601f168201915b5050505060038301805460408051602060026001851615610100026000190190941693909304601f81018490048402820184019092528181529495949350908301828280156105e05780601f106105b5576101008083540402835291602001916105e0565b820191906000526020600020905b8154815290600101906020018083116105c357829003601f168201915b5050505060048301546005840154600690940154929360ff9091169290915073ffffffffffffffffffffffffffffffffffffffff1687565b6000805460019081018083556040805160e08101825282815260208082018c81528284018c9052606083018b9052891515608084015260a0830189905273ffffffffffffffffffffffffffffffffffffffff881660c0840152938652848152919094208451815591518051929361069793908501929190910190610742565b50604082015180516106b3916002840191602090910190610742565b50606082015180516106cf916003840191602090910190610742565b50608082015160048201805460ff191691151591909117905560a0820151600582015560c0909101516006909101805473ffffffffffffffffffffffffffffffffffffffff191673ffffffffffffffffffffffffffffffffffffffff909216919091179055505050505050565b60005481565b828054600181600116156101000203166002900490600052602060002090601f016020900481019282601f1061078357805160ff19168380011785556107b0565b828001600101855582156107b0579182015b828111156107b0578251825591602001919060010190610795565b506107bc9291506107c0565b5090565b6107da91905b808211156107bc57600081556001016107c6565b9056fea165627a7a72305820635cf5a62eca9a4e1b283d1b1f56dee2c27ad713d63b06f04b002f48ace40cc90029",
  "source": "pragma solidity ^0.5.0;\n\ncontract EventList {\n  uint public eventCount = 0;\n\n  struct Event {\n    uint id;\n    string name;\n    string dateTime;\n    string description;\n    bool paymentType;\n    uint price;\n    address walletAddr;\n  }\n\n  mapping(uint => Event) public events;\n\n  function createEvent(string memory name, string memory dateTime, string memory description, bool paymentType, uint price, address walletAddr) public {\n    eventCount ++;\n    events[eventCount] = Event(eventCount, name, dateTime, description, paymentType, price, walletAddr);\n  }\n\n  constructor() public {\n\n  }\n}",
  "sourcePath": "/home/zeus/Workspaces/eth-event/contracts/EventList.sol",
  "compiler": {
    "name": "solc",
    "version": "0.5.0+commit.1d4f565a.Emscripten.clang"
  },
  "schemaVersion": "3.0.1",
  "updatedAt": "2021-07-30T07:38:30.880Z",
  "devdoc": {
    "methods": {}
  },
  "userdoc": {
    "methods": {}
  }
}